:100000000C9434000C9451000C9451000C94510049
:100010000C9451000C9451000C9451000C9451001C
:100020000C9451000C9451000C9451000C9451000C
:100030000C9451000C9451000C9451000C945100FC
:100040000C9451000C9451000C9451000C945100EC
:100050000C9451000C9451000C9451000C945100DC
:100060000C9451000C94510011241FBECFEFD8E026
:10007000DEBFCDBF11E0A0E0B1E0E6E8F1E002C0F4
:1000800005900D92AA31B107D9F721E0AAE1B1E0BC
:1000900001C01D92AC31B207E1F70E9464000C94DC
:1000A000C1000C94000094EA9093BC009091BC00B5
:1000B00097FFFCCF8093BB0084E88093BC008091C5
:1000C000BC0087FFFCCF08951092C50087E680939F
:1000D000C40088E08093C10086E08093C2008CEE6B
:1000E0008093B80080E284B9D2E0C4E814E90AE061
:1000F0008DE0F82E8AE90E945300D093BB00C09394
:10010000BC008091BC0087FFFCCF8BE90E945300AC
:10011000C093BC008091BC0087FFFCCF8091BB00E6
:100120001093BC008D335CF12D9AE0911A01F0918F
:100130001B01E050FF4F8081882381F09091C00027
:1001400095FFFCCF8093C60080911A0190911B010E
:10015000019690931B0180931A01E7CF8091C00014
:1001600085FFFCCF0093C6008091C00085FFFCCFC7
:10017000F092C60010921B0110921A01BBCF2D986D
:06018000B9CFF894FFCF97
:10018600416C6572742120486967682054656D70FA
:0A0196006572617475726521210025
:00000001FF
